S00C000056455F312E73726563ED
S113000028110020D90C0000D50C0000D50C0000EC
S113001000000000000000000000000000000000DC
S1130020000000000000000000000000D50C0000EB
S11300300000000000000000D50C0000D50C0000FA
S1130040D50C0000D50C0000D50C0000D50C000028
S1130050D50C0000D50C0000D50C0000D50C000018
S1130060D50C0000D50C0000D50C0000D50C000008
S1130070150E0000010E0000D50C0000D50C000088
S1130080D50C0000D50C0000D50C000000000000C9
S1130090000000002D0E0000D50C0000D50C00005F
S11300A0D50C000008B5064B064803331B1A062B73
S11300B000D808BD044B002BFBD09847F9E7C04695
S11300C0F41B0000F41B00000000000008B5074802
S11300D0074B1B1A9B10DA0FD318591000D108BD17
S11300E0044A002AFBD09047F9E7C046F41B0000FD
S11300F0F41B00000000000010B5074C2378002B0F
S113010009D1FFF7CFFF054B002B02D0044800E0D4
S113011000BF0123237010BD680000200000000010
S1130120F41B000008B5094B002B03D0084809490B
S113013000E000BF08480368002B03D0074B002BE6
S113014000D09847FFF7C2FF08BDC046000000007A
S1130150F41B00006C000020F41B000000000000F1
S1130160184B196A802252000A431A62164A174B26
S11301705A801A1C13681904FCD44F22144B1A8396
S11301801A1CD368002BFCDB114B9968090C8022E4
S113019052000A435A81DA681204120E01210A43FA
S11301A05A73FF229A73802189010A4A11600A4A0C
S11301B01A801A1CD368002BFCDB80229201054BA9
S11301C01A6070470004004013420000000C004015
S11301D00020004200E100E022080000024BE0227F
S11301E092019A609A6170470044004110B53C4AFC
S11301F03C4B5A801A1C13681904FCD43A4B196AF4
S1130200C02212010A431A62384AD368002BFCDB6D
S1130210374BC02292029A605A61986BC0B2052291
S11302201043C0B238215854986BC0B250242043B4
S11302305854186DC0B21043C0B250215854196DAF
S11302400904090E0A43D2B251215A54274B1A68A1
S113025092B244210A431A80FF221A7500221A76A8
S11302605A761A6892B202210A431A801A1CD36879
S1130270002BFCDB1E4BC02212039A605A61986B60
S11302800004000E05221043C0B239215854986B63
S11302900004000E502420435854186D0002000E30
S11302A01043C0B252215854196D090E0A43D2B2F8
S11302B053215A540F4B1A6892B244210A431A80AC
S11302C0FF221A75002119769A225A76074A117666
S11302D0AA2151761A6892B202210A431A8010BDEB
S11302E014420000000C00400004004000280042BA
S11302F000440041002C00420A4B1B7D002B0FD10F
S1130300084A53681268934203DB0122054B1A75AD
S113031006E0044AD118087A03490883013353607C
S113032000207047BC000020001C004208B5064BAA
S11303301B7D012B06D1044B186000225A601A75EC
S1130340024B9847002008BDBC000020F9020000C1
S1130350294A13691904FCD4284A294B5A80294B89
S1130360196A80220A431A62234A13691904FCD4C5
S1130370254B8021C90388229950B8229958090E27
S113038003221143BB2299540521D62299541A4BB6
S11303901A681E490A431A601A1C13691904FCD40A
S11303A0154B5968802252020A435A601A1C136979
S11303B01904FCD4104B02225A73154A5A811A1C90
S11303C013691904FCD40C4B196802220A431A60FD
S11303D01A1C13691904FCD401220E4B1A75072246
S11303E0054B9A731A1C13691904FCD48022520118
S11303F0094B1A607047C046001C004212420000BC
S1130400000C00400004004000440041040001408E
S113041056ECFFFFBC00002000E100E08022520106
S11304202B4B9A602B4B1A68120C2B490A435A80A7
S11304301A1C13681904FCD4284B196A802252022E
S11304400A431A62264B1A68D2B21A701A1C9369AC
S11304501904FCD41E4B8022D2005A60586B00044D
S1130460000E01221043C0B235215854996C090280
S1130470090E0A43D2B24A215A54194B1A6812047B
S1130480120E02210A435A701A6916490A431A6164
S11304901A1C93691904FCD4114B596889B2E022DF
S11304A0D2000A439A801A1C93691904FCD40C4B99
S11304B01A68D2B202210A431A701A1C93691904E9
S11304C0FCD4074B197B02220A431A737047C046B7
S11304D000440041000C00401740000000040040AC
S11304E0004000421218000F10B5134B197B022272
S11304F00A431A731A1C9369D907FCD50E4B9A69DF
S1130500120C0E4B1A600E4C201C0E490E4B9847D1
S11305100D2363710A23A37100230C4C08481A1994
S1130520195C11720133072BF9D10122024B1A769F
S11305300720074B984710BD00400042840000206C
S1130540880000200C1B0000590F0000BC00002094
S11305502D03000008B5054B9847054B9847054BFC
S11305609847054B9847054B984708BD5103000031
S1130570ED010000DD010000610100001D04000028
S1130580044B05221A721A7730215A5444215A54C2
S11305907047C046D4000020F0B5074D9E00F41803
S11305A0A4002C19002727722061F01880004751FD
S11305B06160E3606272F0BDD400002030B50A4B84
S11305C0181C5030012500241A7A012A03D11A6814
S11305D001321A6003E0002A01D11D721C60143339
S11305E08342F1D130BDC046D400002070B5094C1F
S11305F0251C50350026237A012B06D12168636817
S1130600994202D32660236998471434AC42F2D14C
S113061070BDC046D400002080229201014BDA61F3
S1130620002070470044004180225201014BDA61EE
S1130630002070470044004108B5074B54221A7249
S113064055225A724C229A72044B98478022120106
S1130650034BDA61002008BDBC000020E90400005F
S11306600044004138B50B4B98470B4B98470B4857
S1130670FA21890000220023094CA047094D0A48A9
S1130680291C00220123A0470848291C0022022318
S1130690A04738BD5505000081050000390600005B
S11306A09905000010270000190600002906000023
S11306B07047C0460C4B1B68002B10D1EFF310831E
S11306C0002B09D172B6BFF35F8F0022074B1A705B
S11306D00122074B1A7002E00022054B1A70024BEC
S11306E01A6801321A607047900000200000002050
S11306F094000020084B1A68013A1A601B68002B0A
S113070009D1064B1B78002B05D00122044B1A702B
S1130710BFF35F8F62B67047900000209400002002
S11307200000002070B50C4B1C6A01788578407875
S11307300122104080014026B44304432A40D001E2
S113074080229443221C02430320014009020348EF
S113075002400A431A6270BD00080040FFFCFFFF1C
S1130760F0B5474680B42B4B19694C05640F4378A8
S11307700F251D4003785A425341DBB29C468278D0
S1130780002A19D14368244EB3420CD9234EB342F4
S11307900BD9234EB3420AD9224EB34209D9224E71
S11307A0B34208D908E0002406E0012404E002244E
S11307B002E0032400E00424467A077A40681B4BD5
S11307C0D86001236046800080460420814340466F
S11307D00143181C384080014027B9430143181CC9
S11307E03040C0018026B14301432002104E0C1C4E
S11307F0344004431A40D2020E49231C0B401343D5
S113080029031B051B0D0B4302490B8204BC9046B4
S1130810F0BDC0460008004080841E0000093D0071
S113082000127A000024F40080C3C901980000205B
S1130830FFF8FFFFFFF7FFFF10B5254B9B691B0572
S11308401B0F022B09D8017A0902F8225201114028
S1130850827A11431F4A516008E0017A8906090C23
S113086042899205920D11431A4A51608188428847
S11308701143C4798279224311434278D20111434E
S1130880144A11600278042A21D1022B0FD8027B6A
S11308901206F8235B051A40C1890904FF231B04CF
S11308A00B401A43038A1A430A4B9A600AE0027BFC
S11308B09206038A1A43C3891B0407490B401A434F
S11308C0044B9A60034B196804220A431A6010BD52
S11308D000200041980000200000FF0307283DD8B5
S11308E080001F4B1B589F46002038E01D4B196A9F
S11308F002220A431A62002031E01A4B996902224B
S11309000A439A6100202AE0164B1A6992B2022126
S11309100A431A82002022E0124B5A6992B2022141
S11309200A439A8200201AE00F4B196802220A43F4
S11309301A601A680D4B1A400A4B9A84191C10222B
S1130940CB681A42FCD0084A9168064BD9625168B8
S11309509962126892B29A84002000E017207047CE
S1130960141B000000080040980000207FFF0000D6
S1130970F0B5474680B48CB0C222D2004C4B9A608A
S11309804C4B5A681E218A4306210A435A600323AA
S113099069460B700024484DE0B26946A84701340B
S11309A01C2CF9D109A80025057001248470057256
S11309B044720F234370414B4360414B98470020DE
S11309C0404B984704AB00225D809D809A71DA7198
S11309D0072119723F2159811C73DC810621198278
S11309E0042119705A70384B9B691B051B0F022B8D
S11309F007D9364B1B689B0E3F2B00D11F2304AA3B
S1130A00137204A803230382072303733F23C381C0
S1130A102F4B984703A80024447001268670047065
S1130A202C4B98470620274DA8472B4B98476A46DE
S1130A305470147254721470019401206946274B47
S1130A40984698470120264FB84769464C700623BC
S1130A500B700C724C7201940220C0470220B847FC
S1130A606A46167000206946134B984700201D4BB8
S1130A7098470720A8470E49D022CB681340D02BB3
S1130A80FBD1194A0023137253729372D3726946CD
S1130A904B700B724B7207220A70019300200F4BAC
S1130AA0984700200E4B98470CB004BC9046F0BD0C
S1130AB00008004000400041910C00000024F400B4
S1130AC061070000DD080000002000412460800070
S1130AD03908000025070000ED0A0000110B000092
S1130AE0C10B0000010C000000040040064B996992
S1130AF008220A439A610122044B1A70191C0B68DC
S1130B001342FCD17047C04600040040000C004072
S1130B10F8B5061C071C0D782D0205434B78002BF5
S1130B2002D08023DB021D434B7A002B02D08023AA
S1130B301B031D434C68012C17D9631E1C420FD1A3
S1130B40022C06D90223002201325B009C42FBD80E
S1130B5000E000221702374380235B031D4304E0B7
S1130B602702374380239B021D430B7A002B02D0BC
S1130B7080239B031D430E4A13681904FCD40D4BB8
S1130B8098470D4B1E700A490B681A04FCD4084B95
S1130B909F601A1C13681904FCD4054B5968802201
S1130BA052020A4015435D60044B9847F8BDC046A5
S1130BB0000C0040B5060000080C0040F5060000DB
S1130BC010B5041C0A4A13681904FCD4094B98474D
S1130BD0094B1C70064A13681904FCD4044B596869
S1130BE0802252020A435A60044B984710BDC04603
S1130BF0000C0040B5060000040C0040F50600009F
S1130C0010B5041C064B9847064B1C70064B19681C
S1130C10090C8022D2010A435A80044B984710BD24
S1130C20B5060000020C0040000C0040F506000070
S1130C3010B5041C104B9847104B1C70104B1868CF
S1130C400001000F59880F4A0A405A801A68120C92
S1130C500D490A405A80191C8022D2010B681B0CD2
S1130C601342FBD1064B01025888064A02400A434C
S1130C705A80064B984710BDB5060000020C004090
S1130C80000C0040FFF0FFFFFFBFFFFFF506000070
S1130C9010B50C7824020443024B9847A4B2024BCB
S1130CA05C8010BD310C0000000C00407047C04651
S1130CB008B5044B9847044B9847044B9847044B9A
S1130CC0984708BD71090000B1060000AD0C000092
S1130CD0AD0C0000FEE7C04610B51C4B1C4A9A42FE
S1130CE003D01C4B194A9A4204D31B4B1B4A9A4209
S1130CF010D31BE01A4B17480330C01A8008013088
S1130D00800000231149124AD458CC500433834242
S1130D10FAD1EAE7114B1A1D0F490331891A8908E0
S1130D2089005218002102C39342FCD10D4BFF21CC
S1130D300D4A8A439A600D4B596880220A435A60CF
S1130D400B4B98470B4B9847FEE7C046000000202A
S1130D50F41B000068000020280100206800002027
S1130D600400002000ED00E000000000004000410D
S1130D70D10E00009D0D0000064B1B68002B02D114
S1130D80054A044B1A60034A136818181060181CAB
S1130D907047C046AC0000202811002070B582B016
S1130DA00F4B98470F4B9847802292010E4B5A6184
S1130DB0002301930D4C0E4E0E4D2378012B04D1CC
S1130DC0B047A8470022094B1A700B4B1B78012B24
S1130DD0F3D10A4B98470022074B1A70EDE7C0463F
S1130DE0B10C00006506000000440041B100002081
S1130DF0BD050000ED050000B0000020F902000070
S1130E000123024A1370024A93737047B100002011
S1130E10002000420122034B1A700322024B9A73F2
S1130E207047C046B0000020001C00427047C04616
S1130E30002934D00123002210B488422CD3012489
S1130E402407A14204D2814202D209011B01F8E71E
S1130E50E400A14204D2814202D249005B00F8E7D7
S1130E60884201D3401A1A434C08A04202D3001B03
S1130E705C0822438C08A04202D3001B9C08224336
S1130E80CC08A04202D3001BDC082243002803D074
S1130E901B0901D00909E3E7101C10BC70470028A6
S1130EA001D00020C04307B4024802A140180290B8
S1130EB003BDC046190000000029F0D003B5FFF7B8
S1130EC0B9FF0EBC4243891A1847C0467047C04652
S1130ED070B50D4E0D4D0024AD1BAD1005D0A30013
S1130EE0F35801349847A542F9D100F073FE084E37
S1130EF0084D0024AD1BAD1005D0A300F3580134F8
S1130F009847A542F9D170BDE01B0000E01B00002A
S1130F10E01B0000E41B00000CB410B59CB002916F
S1130F2006910C491EAB049107918224012104CB44
S1130F30A40002AA49429481D181111C1E9A0193F2
S1130F4000F030F9029A002313701CB010BC08BCE6
S1130F5002B01847FFFFFF7F0EB400B59CB01DAB75
S1130F6004CB822202A992008A810A4A02908A60F2
S1130F704A6101225242CA81074A086110681D9AD7
S1130F80019300F00FF9029A002313701CB008BCFF
S1130F9003B01847FFFFFF7F04000020F0B545466B
S1130FA057464E46E0B48D6880460C1C171C1E1C28
S1130FB09D4216D890228B89D200134213D1206807
S1130FC02E1C321C391C00F05DFCA2682368551BE2
S1130FD09E19A560266000201CBC90469946A24636
S1130FE0F0BD1D1CEBE7096920686269401A82465E
S1130FF050008218D00F8218521091465246013286
S1131000921991451CD34A4658051CD54046111CDB
S113101000F0D2FC051E29D05246216900F0F0FBF5
S1131020A289144B134080221343A381534649469B
S1131030E818CB1A256120606161351CA360C0E704
S113104091465805E2D4404600F012FD051EEDD14C
S11310504046216900F068FC0C2342461360A289D3
S1131060402313430120A3814042B5E70C234146AA
S11310700B60F4E77FFBFFFFF0B556464D46444650
S11310805F46F0B4936883B001900D1C90461668D7
S1131090002B00D17CE00868002400218946AB685D
S11310A0002C45D01F1C9C424BD39022AB89D2000C
S11310B0134249D029696A69401A8346500082184C
S11310C0D00F821852109246621C5A44924554D250
S11310D092468020C000034238D00198111C00F0D1
S11310E06BFC071E57D05A46296900F089FBAA8970
S11310F02B4B134080221343AB8151465B46F818B7
S1131100CB1A2F6128606961271CAB60A24649464F
S1131110524600F0B7FB2A684146AB688968101C48
S1131120DB1B50440C1B4246AB602860946026D005
S11311303168746889460836002CF9D01F1C9C421B
S1131140B3D2271CA246E2E7BA46E0E7019800F0D2
S11311508FFC071ED1D10198296900F0E5FB019AA3
S11311600C231360AA8940231343AB814046002318
S1131170836043600120404203E05246A9E7546083
S1131180002003B03CBC90469946A246AB46F0BD55
S113119053600020F5E701990C230B60E2E7C04699
S11311A07FFBFFFFF0B55F4656464D464446F0B41C
S11311B09FB005938B8904900391171C190604D5DD
S11311C0039A1269002A00D1EEE006AD00236B6198
S11311D020236B763023AB768149824B824E99462D
S11311E08B463B783C1C002B0DD0252B02D10AE00A
S11311F0252B70D001342378002BF9D1E21B9046C3
S1131200414600296CD12378002B78D00122524228
S113121000236A60432201342B60EB60AB60AB5463
S1131220AB65012707E0801B3B1C29688340181C21
S11312300843286001342178301C052200F09EFA0E
S11312400028F0D12B68221CD90602D52020432186
S11312506854190702D52B204321685421782A2980
S113126000D16FE00B1C303B092B0BD8EA689100CE
S113127001348A18217852009A180B1C303B092B30
S1131280F5D9EA602E2946D04846032200F076FAC2
S1131290002808D04A46801A40238340181C2B6833
S11312A0013418432860217858460622671C2976A1
S11312B000F064FA002860D04C4B002B00D085E08D
S11312C0059B072207339343083305936A69131C6C
S11312D053446B6185E7E31B98464146002992D04D
S11312E0049803993A1C4346FFF758FE013006D090
S11312F06A69131C43446B612378002B86D10399DC
S11313008B895A0649D468691FB03CBC90469946FB
S1131310A246AB46F0BD61782A291DD000236B603C
S11313200B1C303B0134092BAED800229100013450
S11313308A18217852009A180B1C303B092BF5D9D6
S11313406A60A1E70599081D0968059000290EDB6C
S1131350E9600134517895E7059BA01C1A1D1B68B0
S113136005926B60002B1BDBA178041C8CE74942BF
S1131370E96002210B432B60EBE705AB0093049873
S1131380291C039A1A4B00F0BDF8824651460131DC
S11313909CD103998B895A06B5D501204042B3E705
S11313A001235B426B60DFE7402100F005FB039BF8
S11313B018601861002803D0039A4023536104E79E
S11313C004990C2301200B6040429DE705AB009378
S11313D00498291C039A064B00E000BF8246D5E717
S11313E0441B0000401B0000381B000000000000EC
S11313F09D0F0000F0B54E4657464546E0B4914671
S1131400061C1F1C08980A698B680C1C80469342B2
S113141000DA131C49460B604322A25C002A01D067
S113142001330B602268930604D5484603680233EF
S1131430036022680623134220D14846E16800680D
S11314400B1A002B1ADD192109198A46002506E01A
S11314504846E26800680135131AAB420DDD301CC2
S1131460391C52460123C0470130F1D101204042CA
S11314701CBC90469946A246F0BD22684323E35C17
S1131480591E8B41910626D4221C301C391C433230
S1131490C0470130EAD04B4620681A68062303404F
S11314A00020E1688146042B26D0A26823699A4271
S11314B01DDC1A344946A2460024002903DC19E045
S11314C001344C4516D0301C391C52460123C04708
S11314D00130F5D1CAE7E11840313020C8705A1CF8
S11314E04521615CA21840320233D170CCE7D31A93
S11314F09944DEE70020BBE78A1AD343DB171A407E
S11315009146D2E7F0B5444656464D465F46F0B4A0
S11315100C1C9A46237E87B0433191468046109A2C
S113152003916E2B54D015D8632B00D1D0E000D991
S1131530BAE0002B59D0582B00D0EDE0452163547C
S11315408C4923688B4619061AD51168081D10604A
S11315500D681BE0732B00D1CFE000D97FE06F2B27
S113156000D1E0E0702B00D0D6E0216820230B43AB
S113157023604521782060547F498B461906E4D4C2
S11315805906E2D51168081D0D881060DA0702D5E6
S11315902022134323601027002D03D12168202328
S11315A09943216000224323E2546368A360002B23
S11315B05BDB2168042291432160002D58D1039EF6
S11315C0002B54D1082F64D003998B1B23610FE0A7
S11315D02368190600D589E0590600D486E013680B
S11315E0191D11601B6862691A800023039E236120
S11315F0534600934046211C05AA4B46FFF7FAFECA
S113160001301FD040464946321C2369D04701307F
S113161018D02168E068059B89071CD5C21A002AE6
S113162019DD261C1936002505E0E068059B013507
S1131630C21AAA420FDD40464946321C0123D04754
S11316400130F2D10120404207B03CBC904699469B
S1131650A246AB46F0BD9842F6DA181CF4E7752BA7
S113166061D0782B58D1236883E7002D00D1002561
S1131670039E281C391CFFF71FFC5A46535C013E8D
S1131680281C3370391CFFF7D3FB051EF1D1082F3A
S11316909AD12368DB0797D561682269914293DC6C
S11316A0013E302333708FE7642B01D0692B33D193
S11316B02368190601D459064CD41368191D1B68F4
S11316C011601D1C002B4CDB2A4B0A279B466CE740
S11316D01368261C191D11601A684223E254012361
S11316E04236236100224323E25481E71368191D23
S11316F011601B6862691A6077E71368191D11602D
S11317001E68301C00F0F0F963682061984201D92A
S11317102361181C6060E5E74222A354261C0123C0
S113172042362361DEE72368190601D459060CD436
S11317301368191D1D6811600E4A237E93460827FD
S11317406F2B00D12EE70A272CE71368191D1160AF
S11317501D88F1E71368191D116000229D5E2B1C82
S1131760B0E743232D22E254024B6D429B460A27E5
S11317701BE7C0464C1B0000601B0000F0B5CCB258
S1131780830737D0531E002A1FD00278A2421DD0EF
S1131790032505E0002B18D00278013BA24215D0A6
S11317A001302842F6D1032B11D8002B0DD002783A
S11317B0A2420BD0421CC31804E00132511E097826
S11317C0A14203D0101E9842F7D10020F0BDFF269D
S11317D031400E0231430E04074D0E430268074F99
S11317E07240D11991432942DFD1043B0430032BC9
S11317F0F4D8DAE7131CD6E780808080FFFEFEFE73
S1131800F0B50F2A35D9031C0B439C0735D1161CA0
S1131810103E36093501451910350C1C031C276888
S11318201F6067685F60A7689F60E7681034DF60C7
S11318301033AB42F3D1731C1B01C518C9180F2315
S11318401340032B1BD91C1FA4080134A40000233C
S1131850CE58EE500433A342FAD1ED18C91803232D
S11318601A4005D00023CC5CEC5401339342FAD1E6
S1131870F0BD051C002AF5D1FAE7051CF2E71A1C95
S1131880F8E7C046F0B588420ED98D18A8420BD2AD
S11318908618531E5142002A05D06A18D45C721867
S11318A0D454013BF9D2F0BD0F2A09D8051C002AF3
S11318B0F9D00023CC5CEC5401339342FAD1F2E723
S11318C0031C0B439C072AD1161C103E3609350114
S11318D0451910350C1C031C27681F6067685F607E
S11318E0A7689F60E7681034DF601033AB42F3D120
S11318F0731C1B01C518C9180F231340032B10D9DF
S11319001C1FA4080134A4000023CE58EE50043355
S1131910A342FAD1ED18C91803231A40C7E7051CDE
S1131920C7E71A1CC3E7C04630B500290FD00439F5
S11319300B68002B1EDB1F4B1A68002A05D08A4255
S113194009D908680C18A24216D04A60196030BD43
S11319508B4203D81A1C5368002BF9D1156854190B
S11319608C4213D00FD808680C189C421AD04B60D4
S11319705160ECE7C918DEE7146852680019086082
S11319804A601960E3E70C230360E0E709686D1817
S1131990511915609942DAD119685B686D181560A0
S11319A05360D4E71C685B68001908604B605160A1
S11319B0CDE7C046B4000020F8B5CD1C03239D43F9
S11319C00835071C0C2D27D20C25A94226D8274EF2
S11319D03368002B0AD019684A1B04D440E02168FC
S11319E04A1B1FD5231C5C68002CF8D171680029A0
S11319F030D0381C291C00F065F8431C0ED0C41CE0
S1131A0003239C43A04205D0211A381C00F05AF845
S1131A10013003D025600AE0002DD6DA0C233B60A8
S1131A2000200DE00B2A0CD92260A4182560201C8C
S1131A300B300722231D9043C31A01D05A42E250AF
S1131A40F8BD9C4202D062685A60F0E71A1C32600A
S1131A501C1CECE7381C002100F034F87060C8E767
S1131A600B2A01D85A68F2E71C1CDDE7B4000020F9
S1131A70F8B5061C0C1C151C00291DD0002A17D013
S1131A8000F03AF8854201D8201CF8BD301C291C0E
S1131A90FFF792FF071E09D0211C2A1CFFF7B0FE96
S1131AA0211C301CFFF740FF3C1CEDE70024EBE752
S1131AB0FFF73AFF0024E7E7111CFFF77DFF041C42
S1131AC0E2E7C04638B5074C0023051C081C236018
S1131AD0FFF752F9431C00D038BD2368002BFBD01C
S1131AE02B60F9E7240100200023C25C0133002AA3
S1131AF0FBD1581E7047C04604390B68181F002BD1
S1131B0000DB7047C8581B18181FFAE725302E351C
S1131B1064000000080900005C0900005C09000082
S1131B20E8080000FA08000018090000EC080000AA
S1131B302809000043000000232D302B2000000062
S1131B40686C4C00656667454647000030313233A7
S1131B5034353637383941424344454600000000A5
S1131B60303132333435363738396162636465660F
S1131B700000000000000000000000000000000061
S1131B800000000000000000000000000000000051
S1131B900000000000000000000000000000000041
S1131BA00000000000000000000000000000000031
S1131BB00000000000000000000000000000000021
S1131BC00000000000000000000000000000000011
S1131BD000000000F8B5C046F8BC08BC9E4670473B
S1131BE025010000F8B5C046F8BC08BC9E46704705
S1071BF0F9000000F4
S1131BF4010000000800002000000000B41B0000E5
S1131C04941B0000741B000000000000000000008E
S1131C140000000000000000341B0000000000006D
S1131C2400000000000000000000000000000000AC
S1131C34000000000000000000000000000000009C
S1131C44000000000000000000000000000000008C
S10B1C54000000000000000084
S9030CD917
