S00C000056455F312E73726563ED
S113000080140020091000000510000005100000F5
S113001000000000000000000000000000000000DC
S113002000000000000000000000000005100000B7
S11300300000000000000000051000000510000092
S11300400510000005100000051000000510000058
S11300500510000005100000051000000510000048
S11300600510000005100000051000000510000038
S1130070511100003D1100000510000005100000A2
S1130080051000000510000005100000000000002D
S113009000000000691100000510000005100000B8
S11300A00510000008B5064B064803331B1A062B3F
S11300B000D808BD044B002BFBD09847F9E7C04695
S11300C0D02F0000D02F00000000000008B5074822
S11300D0074B1B1A9B10DA0FD318591000D108BD17
S11300E0044A002AFBD09047F9E7C046D02F00000D
S11300F0D02F00000000000010B5074C2378002B1F
S113010009D1FFF7CFFF054B002B02D0044800E0D4
S113011000BF0123237010BD700000200000000008
S1130120D02F000008B5094B002B03D0084809491B
S113013000E000BF08480368002B03D0074B002BE6
S113014000D09847FFF7C2FF08BDC046000000007A
S1130150D02F000074000020D02F00000000000009
S11301601D4B196A802252000A431A621B4A1C4B17
S11301705A801A1C13681904FCD44F22194B1A8391
S11301801A1CD368002BFCDB164B9968090C8022DF
S113019052000A435A81DA681204120E01210A43FA
S11301A05A73FF229A73802189010F4A11600F4A02
S11301B01A801A1CD368002BFCDB0B4BC322920061
S11301C098580B4901408020000201439950802235
S11301D092011A607047C0460004004013410000B9
S11301E0000C00400020004200E100E02208000072
S11301F0FF00FFFF024BE02292019A609A61704770
S11302000044004110B5384A384B5A801A1C136810
S11302101904FCD4364B196AC02212010A431A622B
S1130220344AD368002BFCDB334BC02292029A6021
S11302305A61986BC0B205221043C0B23821585499
S1130240986BC0B2502420435854186DC0B2104368
S1130250C0B250215854196D0904090E0A43D2B290
S113026051215A54234B1A6892B244210A431A80EA
S1130270FF221A7500221A765A761A6892B202215F
S11302800A431A801A1CD368002BFCDB1A4BC022C9
S113029012039A605A61986B0004000E0522104301
S11302A0C0B239215854986B0004000E50242043E6
S11302B05854186D0002000E1043C0B25221585415
S11302C0196D090E0A43D2B253215A540B4B1A68C2
S11302D092B244210A431A80FF221A751A6892B214
S11302E002210A431A8010BD14410000000C004092
S11302F0000400400028004200440041002C004259
S11303000A4B1B7D002B0FD1084A53681268934295
S113031003DB0122054B1A7506E0044AD118087A5A
S1130320034908830133536000207047C80000204C
S1130330001C004208B5074B1A7DFF23012A07D190
S1130340044B186000225A601A75034B9847002327
S1130350181C08BDC80000200103000010B5021CD1
S11303600A4C201C0A490B4B98470D2363710A233E
S1130370A3710023084C05481A19195C1172013342
S1130380072BF9D10720054B984710BD8C0000209E
S1130390682E0000B5220000C800002035030000CC
S11303A0294A13691904FCD4284A294B5A80294B39
S11303B0196A80220A431A62234A13691904FCD475
S11303C0254B8021C90388229950B8229958090ED7
S11303D003221143BB2299540521D62299541A4B66
S11303E01A681E490A431A601A1C13691904FCD4BA
S11303F0154B5968802252020A435A601A1C136929
S11304001904FCD4104B02225A73154A5A811A1C3F
S113041013691904FCD40C4B196802220A431A60AC
S11304201A1C13691904FCD401220E4B1A750722F5
S1130430054B9A731A1C13691904FCD480225201C7
S1130440094B1A607047C046001C0042124100006C
S1130450000C00400004004000440041040001403E
S113046056ECFFFFC800002000E100E080225201AA
S1130470334B9A60334B1A68120C33490A435A803F
S11304801A1C13681904FCD4304B196A80225202D6
S11304900A431A622E4B1A68D2B21A701A1C936954
S11304A01904FCD4264B8022D2005A60586B0004F5
S11304B0000E01221043C0B235215854986C00023A
S11304C0000E1043C0B24A215854214BD97D0A432F
S11304D0DA7533229A701A681204120E02210A4342
S11304E05A700222DA701A691A490A431A611A1CEC
S11304F093691904FCD4164B5A6892B214210A4326
S11305009A801A1C93691904FCD4114B1A68D2B24C
S113051002210A431A701A1C93691904FCD40C4B67
S1130520197B02220A431A730B4BC5229200985876
S11305300A4901409950802292031A607047C046CC
S113054000440041000C004017410000000400403A
S1130550004000421218000F00E100E0FF00FFFF1E
S1130560024B9869000C01221A7670470040004241
S113057008B5054B9847054B9847054B9847054BDD
S11305809847054B984708BDA103000005020000E9
S1130590F5010000610100006D040000F8B5134C82
S11305A0C2277F00201C00213A1C114EB0470125B0
S11305B06D42E5800F4BC0225200A350BE22520070
S11305C0A350C2277F00E01900213A1CB047C5237D
S11305D05B00E552084AC0239B00E250074AC1234E
S11305E09B00E250064A074B1A60F8BD1C0100202C
S11305F0B921000019280042182C0042192C00428D
S1130600D9060000000000200020704708B5024B06
S11306101B68984708BDC046000000200000000089
S1130620D8B5474680B4061C171CFF20012E3ED8BF
S11306308846642901D9642290464346D8B2204BA7
S11306409847204B98471D4B1B4A1F4CA0471F4BF4
S11306509847C2235B0073431D4AD31842461A735A
S1130660002F12D1C2235B005E43194B9E19C02296
S11306705200B3181B6800221A707D36FF363468A6
S1130680144B98472070002011E0C2235B005E43A6
S11306900F4B9E19C0225200B3181C680D4B98478B
S11306A020707D36FF36336800221A70002004BCA7
S11306B09046D8BDC046C046666666666666044017
S11306C0D1170000951D000071180000391E0000AC
S11306D01C0100202912000000B583B00120412133
S11306E000223A4B98473A4B1B689F4680221201DE
S11306F0384B5A6100203849384B9847384B1B68AF
S113070099B2384A136801331360092B05DD364B5F
S11307101B888B4201D2344B19800020334B9847FD
S1130720002803D1324A2A4B1A604BE0314A284B45
S11307301A60284BE02292019A61802292015A6148
S113074040E0274B186880B2274B1B88C21C934299
S113075038DAC21E934235DD274A1D4B1A60274BF7
S113076098471C4BE02292019A61802252015A61FF
S11307700020234B984700221A4B1A60194B196822
S113078001311960164B1A6892B2174B1B88D01CA2
S1130790834217DA033A934214DD322912DD002032
S11307A0184B9847002001A9174B9847019A90B21B
S11307B0124B9847012000210122044B9847134A09
S11307C0134B1A60002003B000BDC0462106000090
S11307D004000020004400419A99993E450A000013
S11307E02404002094000020980000206D0A0000DA
S11307F0FC060000420700007C0700005D030000C7
S113080065090000F1090000C109000009060000A3
S11308100000002008B5024B9847024B188008BD21
S11308206105000024040020044B05221A721A7783
S113083030215A5444215A547047C0462804002099
S1130840F0B5074D9E00F418A4002C190027277258
S11308502061F018800047516160E3606272F0BD6E
S11308602804002030B50A4B181C50300125002400
S11308701A7A012A03D11A6801321A6003E0002AA5
S113088001D11D721C6014338342F1D130BDC046C6
S11308902804002070B5094C251C50350026237A05
S11308A0012B06D121686368994202D3266023692B
S11308B098471434AC42F2D170BDC04628040020DD
S11308C00020704708B5024B9847002008BDC04679
S11308D0850A000008B5024B9847002008BDC046B1
S11308E00D06000010B50E4B98470E4B98470E4B63
S11308F098470E4B98470E480121002200230D4CC7
S1130900A0470D48642100220123A0470B480C494D
S113091000220223A047E02292010A4B9A6110BDF3
S11309207105000049090000290800009D05000028
S1130930C508000041080000D5080000C1080000F7
S1130940A086010000440041044A0023137013727E
S11309501374034A13701373137670470401002051
S1130960E0000020FF2302280DDCC300074A9A5C44
S1130970FF23012A07D0054BC0001A18002151603B
S11309800122C2540123181C7047C04604010020F0
S113099002280FDCC300094A9B5C012B03D100230E
S11309A00B60FF2009E0C000044B18184068086081
S11309B0012002E000230B60FF20704704010020A7
S11309C010B582B00C1C0023019301A9064B984773
S11309D0FF23002805D001986421044B9847206028
S11309E00023181C02B010BD9109000089110000F9
S11309F0FF23022804DCC0000322024BC25401235B
S1130A00181C70470401002010B5031CFF20022BA2
S1130A1015DC5800C0188000094A825CFF20012AB6
S1130A200DD0074A5800C418A4001419A160C118B5
S1130A30890001248C54521800235360012010BDF6
S1130A40E000002010B5041C0448054B9847054BF2
S1130A509847011C201C044B984710BD0050C34705
S1130A605912000029120000090A0000044B1B78E7
S1130A700020032B03D10022014B1A700120704780
S1130A80E000002030B50F4B191C18311A78012AE8
S1130A9002D15A6801325A6008338B42F6D10A4BAC
S1130AA0181C243003241A78012A07D15A689D6837
S1130AB0AA4201D11C7001E001325A600C33834216
S1130AC0F1D130BD04010020E00000207047C04691
S1130AD00C4B1B68002B10D1EFF31083002B09D1B2
S1130AE072B6BFF35F8F0022074B1A700122074BC7
S1130AF01A7002E00022054B1A70024B1A68013288
S1130B001A6070479C00002008000020A00000200C
S1130B10084B1A68013A1A601B68002B09D1064B6E
S1130B201B78002B05D00122044B1A70BFF35F8F92
S1130B3062B670479C000020A0000020080000203E
S1130B4070B50C4B1C6A01788578407801221040FE
S1130B5080014026B44304432A40D00180229443B8
S1130B60221C0243032001400902034802400A43B5
S1130B701A6270BD00080040FFFCFFFF10B5254B52
S1130B809B691B051B0F022B09D8017A0902F82265
S1130B9052011140827A11431F4A516008E0017AE0
S1130BA08906090C42899205920D11431A4A516033
S1130BB0818842881143C47982792243114342785F
S1130BC0D2011143144A11600278042A21D1022B64
S1130BD00FD8027B1206F8235B051A40C189090469
S1130BE0FF231B040B401A43038A1A430A4B9A60DF
S1130BF00AE0027B9206038A1A43C3891B0407494D
S1130C000B401A43044B9A60034B196804220A43AD
S1130C101A6010BD00200041A40000200000FF0362
S1130C2007283DD880001F4B1B589F46002038E002
S1130C301D4B196A02220A431A62002031E01A4B42
S1130C40996902220A439A6100202AE0164B1A6924
S1130C5092B202210A431A82002022E0124B5A69FE
S1130C6092B202210A439A8200201AE00F4B1968BB
S1130C7002220A431A601A680D4B1A400A4B9A84DE
S1130C80191C1022CB681A42FCD0084A9168064B02
S1130C90D96251689962126892B29A84002000E085
S1130CA017207047702E000000080040A4000020A8
S1130CB07FFF0000F0B55F4656464D464446F0B40B
S1130CC08BB0C222D200484B9A60484B5A681E210E
S1130CD08A4306210A435A60032201AB1A70002496
S1130CE0434DE0B201A9A84701341C2CF9D105AB4E
S1130CF000210022598099809A71DA7107211972B2
S1130D003F21598101211973D981062119820421B6
S1130D1019705A70374B9B691B051B0F022B07D99F
S1130D20354B1B689B0E3F2B00D11F2305AA137262
S1130D3005A80723994603733F23C3812F4B984784
S1130D4004A8012686700025057046702C4B984730
S1130D5006202C4FB8472C4B984701AC65700623EE
S1130D609B4623702572657202950120211C274B36
S1130D709A4698470120264B9846984765705B46EB
S1130D802370257265724B4663600220211CD04794
S1130D900220C04726700020211C154B98470020D4
S1130DA01C4B98470720B8470F49D022CB68134003
S1130DB0D02BFBD1184A0023137253729372D3724F
S1130DC001A94B700B724B7207220A704B60002012
S1130DD00E4B984700200E4B98470BB03CBC9046F6
S1130DE09946A246AB46F0BD0008004000400041D1
S1130DF0C10F000000200041246080007D0B000032
S1130E00410B0000210C00001D0E0000410E0000EB
S1130E10F10E0000310F000000040040064B9969F8
S1130E2008220A439A610122044B1A70191C0B68A8
S1130E301342FCD17047C04600040040000C00403F
S1130E40F8B5061C071C0D782D0205434B78002BC2
S1130E5002D08023DB021D434B7A002B02D0802377
S1130E601B031D434C68012C17D9631E1C420FD170
S1130E70022C06D90223002201325B009C42FBD8DB
S1130E8000E000221702374380235B031D4304E084
S1130E902702374380239B021D430B7A002B02D089
S1130EA080239B031D430E4A13681904FCD40D4B85
S1130EB098470D4B1E700A490B681A04FCD4084B62
S1130EC09F601A1C13681904FCD4054B59688022CE
S1130ED052020A4015435D60044B9847F8BDC04672
S1130EE0000C0040D10A0000080C0040110B000067
S1130EF010B5041C0A4A13681904FCD4094B98471A
S1130F00094B1C70064A13681904FCD4044B596835
S1130F10802252020A435A60044B984710BDC046CF
S1130F20000C0040D10A0000040C0040110B00002A
S1130F3010B5041C064B9847064B1C70064B1968E9
S1130F40090C8022D2010A435A80044B984710BDF1
S1130F50D10A0000020C0040000C0040110B0000FC
S1130F6010B5041C104B9847104B1C70104B18689C
S1130F700001000F59880F4A0A405A801A68120C5F
S1130F800D490A405A80191C8022D2010B681B0C9F
S1130F901342FBD1064B01025888064A02400A4319
S1130FA05A80064B984710BDD10A0000020C00403D
S1130FB0000C0040FFF0FFFFFFBFFFFF110B00001C
S1130FC010B50C7824020443024B9847A4B2024B98
S1130FD05C8010BD610F0000000C00407047C046EB
S1130FE008B5044B9847044B9847044B9847044B67
S1130FF0984708BDB50C0000CD0A0000DD0F0000C5
S1131000DD0F0000FEE7C04610B51C4B1C4A9A4297
S113101003D01C4B194A9A4204D31B4B1B4A9A42D5
S113102010D31BE01A4B17480330C01A8008013054
S1131030800000231149124AD458CC50043383420F
S1131040FAD1EAE7114B1A1D0F490331891A8908AD
S113105089005218002102C39342FCD10D4BFF2199
S11310600D4A8A439A600D4B596880220A435A609C
S11310700B4B98470B4B9847FEE7C04600000020F7
S1131080D02F0000700000207C040020700000209D
S11310900400002000ED00E00000000000400041DA
S11310A071210000CD100000064B1B68002B02D1FB
S11310B0054A044B1A60034A136818181060181C78
S11310C07047C046B80000208014002070B582B07C
S11310D0114B9847114B984700230193104C114E24
S11310E0114D2378012B04D1B047A84700220C4BA3
S11310F01A700E4B1B78012B04D10D4B984700221C
S11311000A4B1A700B4B1B78002BEAD00A4B9847FA
S11311100022084B1A70E4E7E10F0000E508000024
S1131120BE0000206508000095080000BD000020F6
S113113001030000BC000020150800000123024A3E
S11311401370024A93737047BE00002000200042CF
S11311500122034B1A700322024B9A737047C04654
S1131160BD000020001C004210B50124034B1C707C
S1131170034B9847034BDC7510BDC046BC000020F0
S11311801508000000400042002934D00123002249
S113119010B488422CD301242407A14204D28142F2
S11311A002D209011B01F8E7E400A14204D2814202
S11311B002D249005B00F8E7884201D3401A1A437F
S11311C04C08A04202D3001B5C0822438C08A042B6
S11311D002D3001B9C082243CC08A04202D3001B6C
S11311E0DC082243002803D01B0901D00909E3E7E6
S11311F0101C10BC7047002801D00020C04307B465
S1131200024802A14018029003BDC0461900000024
S11312100029F0D003B5FFF7B9FF0EBC4243891A89
S11312201847C0467047C0469E2110B5C905041C26
S113123000F0BEFE002803D1201C00F0A9FA10BD66
S11312409E21C905201C00F02DF900F0A1FA80238D
S11312501B06C018F3E7C046F0B55F4656464D4638
S11312604446F0B446024500C00F85B00F1C760A10
S11312702D0E804641D0FF2D26D080242404002149
S11312802643F6007F3D89468B46F90F7C027800A1
S1131290640A000E00918A463CD0FF2834D0802393
S11312A01B041C430023E4007F380193009F434642
S11312B0019A7B4049469C4611430F2900D970E0AE
S11312C0754F89007F58BF46002E3ED10822022365
S11312D091469B46D9E75A46341CC246019201996D
S11312E0022937D0032900D1CEE0012900D0AAE099
S11312F053460B400022002632E0002E19D104216F
S1131300012289469346C0E7221C531E9A410232A9
S11313100192CBE701270197002CC7D0201C00F0D5
S113132051FE431F9C4076235B420021181A019111
S1131330BCE7301C00F046FE7625431F9E406D42FC
S113134000232D1A99469B469FE70C2303219946B7
S11313508B469AE7D446012367463B40FF2200268A
S11313607602D205700ADB071043184305B03CBC73
S113137090469946A246AB46F0BD0023474EFF2255
S1131380EEE700220026EBE78020C00306423BD0B4
S1131390044239D1061C26437602760A009BFF22BA
S11313A0DEE7281A039076016401A64239D3361B7E
S11313B01A2201230120311C5B007600002901DB85
S11313C0B44201D8361B0343013A002AF3DC741EED
S11313D0A641341C1C43039A7F32002A27DD63078D
S11313E004D00F232340042B00D00434270103D559
S11313F02B4B039A1C408032FE2A0BDD01236146ED
S11314000B40FF220026ABE706437602760A4346EA
S1131410FF22A5E7A40101236746660AD2B23B4036
S11314209EE7039F1B22013F03970023C2E77E230D
S1131430039F5B42DB1B1B2B07DD012361460B4033
S1131440002200268CE7D446C5E7221CDA40039B21
S11314509E339C40231C5C1EA34113435A0704D0B3
S11314600F221A40042A00D004335F0105D501235A
S113147061460B400122002672E79E016246012369
S11314801340760A00226BE78026F6032643760291
S1131490760A5346FF2263E7902E0000FFFF7F0089
S11314A0FFFFFFF7F8B5C20F430244004D024800A6
S11314B0240E161C9B09000EC90FAD09FF2800D18C
S11314C083E0012779408A425CD0221A002A00DC9A
S11314D08EE000281ED1002D00D07AE0580704D0F9
S11314E00F221A40042A00D004338021C9040122A7
S11314F01940324000293AD00134FF2C00D183E056
S11315009B015B0A5B02E4B2E405580AD20720435C
S11315101043F8BDFF2CE1D08021C9040D431B2AE0
S113152000DD2FE1291C2020D140821A95406A1E3B
S113153095410D435B1B5801D0D59B019F09381C75
S113154000F040FD421F974094425FDC141B1F23B0
S11315501B1B3A1C9F40611C3B1CCA405F1EBB41C5
S113156013430024BAE7131EB8D100230022DB087A
S1131570FF2C04D1002B47D08020C00303435B021F
S11315805B0ABFE7211A002944DD002827D0FF2C7D
S1131590A4D08020C00405431B2900DDF0E0281CF2
S11315A02027C840791A8D40691E8D4105435B1977
S11315B0590100D492E70134FF2C59D07249012219
S11315C01A400B405B08134388E7002D00D07AE7EC
S11315D077E7013A002AADD0FF2CA0D17EE7002D99
S11315E000D17BE701390029E1D0FF2CD4D175E784
S11315F0002A1BD1621CD2B2012A4ADD5F1B7A0188
S113160023D5EF1A0E1C9AE700237BE75E4BA41A3E
S11316103B4063E7002945D1611CC8B2012829DD9C
S1131620FF2924D0EB185B080C1C57E7002C13D0BF
S1131630FF2818D08024E404524223431B2A4CDDA3
S11316400123EB1A041C0E1C75E7002F00D076E76B
S11316500023002200248AE7002B3AD0D243002A38
S1131660EFD0FF28EAD12B1CFF240E1C36E7FF2401
S113167000237CE7002C5BD1002B7FD0002D00D110
S11316802CE75B19580100D428E73F4A0124134092
S113169024E7002C15D1002B40D1002D62D02B1C47
S11316A00E1C1BE7002C21D1002B54D0C943002968
S11316B004D0FF284CD01B2957DD01235B19041CDF
S11316C076E7002B19D1002D48D02B1C0E1CFF24CB
S11316D004E72B1C041C0E1C00E71C1C2026D44011
S11316E0B21A93405A1E93412343AAE7FF282FD0EE
S11316F08024E40449422343DDE7FF24002D00D184
S1131700ECE68022DB08D203134204D0ED08154234
S113171001D12B1C0E1CDB00FF24DFE6002D00D1C1
S1131720DCE65A1B500100D41DE7EB1A0E1CD5E66B
S1131730002B0DD0FF24002D00D1CFE68022DB0842
S1131740D2031342E7D0ED081542E4D12B1CE2E7A3
S11317502B1CFF24C2E62B1C041CBFE600220B4BEF
S1131760FF2404E7231C002201E71C1C2027CC4093
S1131770791A8B40591E8B4123439FE72B1CADE6FE
S1131780012514E70125D5E6FFFFFFFBF8FFFF0362
S11317904302590A4300C20F1B0E00207E2B0DDDAD
S11317A09D2B0CDC802000040143952B0ADC962041
S11317B0C31AD9404842002A00D1081C7047034B81
S11317C0D018FBE7963B9940F4E7C046FFFFFF7F44
S11317D010B5041E33D000F0F5FB9E231B1A962B84
S11317E009DC083884406402640ADBB26402DB0565
S11317F0600A184310BD992B0ADD0522121A211C18
S1131800D1400A1C011C1B318C40611E8C411443C5
S1131810052801DD421F9440144A2240610704D088
S11318200F210C40042C00D0043251010AD59F230F
S1131830181AFF2816D09401640AC3B2D6E700230D
S11318400024D3E7D208FF2B03D05402640ADBB28E
S1131850CCE7002A06D08024E40314436402640A1B
S1131860FF23C3E7FF230024C0E7C046FFFFFFFBBD
S1131870F0B5564644465F464D46F0B41F1C0B0374
S11318801B0B9A464B0087B0041C80465B0DC80FA7
S1131890161C02938146002B68D0694B0299994229
S11318A032D08022534652031A43D200630F1A43A4
S11318B09246644AE000891880460291002400257B
S11318C03B031B0B9B467800FB0F321C400D03931C
S11318D000D175E05A4B984269D080225946520390
S11318E00A43730FD2001A43564B9346C018F200B2
S11318F0002303994E4671401C430F2C00D9ABE0E2
S1131900514EA4003459A74653461C4300D087E0E7
S11319100025AA46A84608240225D1E74946022DF7
S11319206CD0032D00D119E2012D00D05AE10D40F5
S1131930EDB20024A9460023A0460020002125037F
S11319400A0D1C052D0B1205404B2A43134023435B
S11319505B004C465B08E207191C4046114307B084
S11319603CBC90469946A246AB46F0BD5346234341
S113197050D05346002B00D186E1504600F022FBA4
S1131980031E272B00DD78E128210D1A211C083BBA
S11319905246E9409A400D1C1543221C9A40AA461F
S11319A090462B4B00241B1A0293002588E75B46C4
S11319B01E430323002E9CD1B3460022022398E742
S11319C05B46334321D05846002800D150E100F053
S11319D0F9FA272800DD44E128210F1A021C311CE2
S11319E0083A5B46F94093400F1C1F43331C934055
S11319F0BB461A1C164B181A00237AE701230B4026
S1131A0000249946A0460E4B97E70027BB460022C8
S1131A1001236EE7002104248A46884601254FE706
S1131A200C2403254CE701235B4200259846A94674
S1131A30084C034B81E7DA46904603991D1C6EE778
S1131A40FF07000001FCFFFFD02E0000FFFF0F8006
S1131A500DFCFFFFFFFF0F00029F160C38180490C7
S1131A604046070C0004000C1204120C031C5343E0
S1131A70041C3D1C7443554398463B1C7343641932
S1131A80A44644460293230C63449D4204D9029D18
S1131A90802464022D1902951D0C039545462C04DF
S1131AA01B04240C1C1905945C46230C051C584388
S1131AB02404240C8446381C604365435F438146F8
S1131AC0CC44280C6044BB46814502D980277F0260
S1131AD0BB442D04070C2D0C000440195546BC468C
S1131AE02F04E3448446280C3D0C2F1C5743B8466E
S1131AF02F1C77434243B94647463F0C9144BA46AC
S1131B00D14446434A4502D980225202B6184F4670
S1131B103A0CB6183A0447463F043F0CB8462F1C0B
S1131B2067435D434443584365190190380C2D18AD
S1131B304244B846AC4204D9019880235B02C018E1
S1131B400190039C029F201C6044C0196045A4417D
S1131B5047466442A4462B043C049946240C4C4456
S1131B60A046D8448018C246E24490429241574667
S1131B7052429146F219E245BF417F424B46BC4670
S1131B80D845BF41D4187F4263461F432D0C7F19AB
S1131B90B24292414C45AD4152426D421543019EC1
S1131BA07D19AB19E20D5B02059F134342023A43D0
S1131BB09A46531E9A41C30D101C184364022043D5
S1131BC080465046C0010DD5454601225646049C28
S1131BD06B082A401A43F30701341A437608049425
S1131BE09046B246049E634FF319002B61DD4046D4
S1131BF040070BD00F2244462240042A06D0424616
S1131C000432424580414042824490465546ED01AB
S1131C1007D5594B5646049F80201E40C000B2464B
S1131C203B18564A934200DDE8E644465546E2082E
S1131C306807104301226C025B050A408046240BAE
S1131C405B0D914679E6DA4690461D1C67E68024D2
S1131C502403574627421CD13C432403240B484BFE
S1131C606BE6031C283B311C99408B460022C1E6DD
S1131C70301C00F0A7F92030ABE6283B211C99402A
S1131C8000228A4690468CE6201C00F09BF9203006
S1131C9076E65846204207D1044303992403240BD3
S1131CA089469046364B48E63C432403240B344B88
S1131CB043E6344B049E9B1B382B06DD01230B406B
S1131CC000249946A046002337E61F2B25DC049CFC
S1131CD02D4D46466019524644468640DC408240BB
S1131CE05746301C2243DF40441EA04102433B1CA4
S1131CF0540709D00F201040042805D0101D90422D
S1131D00924152429B18021C1D021AD501230B401A
S1131D1000249946A04601230FE61C48049C55461E
S1131D20001BC540281C202B16D0194E5746A2195B
S1131D3097403A1C43461A43531E9A4102430023D8
S1131D40D6E758075B02D2081C0B01230B40104353
S1131D50994680460023F0E50022EBE78024240323
S1131D6050460123044319402403240B8946044BA1
S1131D70E3E5C046FF030000FFFFFFFEFE0700008F
S1131D80FF07000002FCFFFF1E040000E2FBFFFF50
S1131D903E04000043001B0E5A1C4102D2B270B52F
S1131DA04C0AC50F012A17DDE02292006407090BD3
S1131DB09818002200231E0D221C34050C431B49D5
S1131DC0400540082140014349004908ED070B1C28
S1131DD02B43101C191C70BD002B15D1002C1CD0DA
S1131DE0201C00F0EFF80A281ADC0B21091A231C26
S1131DF0CB40191C031C15339C400D4B0903181AC6
S1131E004005090B400DD4E7002C03D06407090BEF
S1131E100848CEE707480021CBE700200021C8E7A7
S1131E20011C0B398C40211C0024E6E7FFFF0F80C6
S1131E3089030000FF070000F0B54B000D03420FBB
S1131E405B0D6D0A15435A1C5205CC0FC600520D8A
S1131E50012A27DD394FDA19FE2A1ADC002A35DD7A
S1131E608001ED00431E98412843760F3043430719
S1131E7004D00F230340042B00D004308021C90474
S1131E80014027D00132FF2A1DD083015B0AD1B261
S1131E9001E0FF2100235802C905400AE407084372
S1131EA02043F0BD002B06D1354311D10021002081
S1131EB043025B0AEFE72E43EBD08020ED00800461
S1131EC02843FF22D3E7FF210023E4E717320DDA8A
S1131ED005200022C008D1B2FF2AE9D10028D9D0B8
S1131EE08023DB0303435B025B0AD4E780221449AB
S1131EF012041543C91A1F290DDC124A371C9B18FA
S1131F00281C9F4098403B1C5A1E93411843CE40C6
S1131F1030430022ABE70C4F2A1CFF1AFA40171C6F
S1131F20202909D0094A98188540281C3043461EA8
S1131F30B041384300229AE70020F7E780FCFFFF16
S1131F409E03000082FCFFFF7E030000A2FCFFFF53
S1131F508446081C6146FFE71FB500F0C1F800285D
S1131F6001D40021C8421FBD10B500F049F8404219
S1131F70013010BD10B500F0B3F8002801DB0020DB
S1131F8010BD012010BDC04610B500F0A9F800280E
S1131F9001DD002010BD012010BDC04610B500F0C9
S1131FA057F8002801DC002010BD012010BDC046F8
S1131FB010B500F04DF8002801DA002010BD012012
S1131FC010BDC0461C2101231B04984201D3000C00
S1131FD010391B0A984201D3000A08391B09984298
S1131FE001D30009043902A2105C40187047C046AE
S1131FF004030202010101010000000000000000CE
S11320004A02430270B55C0A550A43004A001B0E9B
S1132010C60F120EC90FFF2B05D0FF2A08D00120CE
S113202093420BD070BD0120002CFBD1FF2AF6D1C6
S11320300120002DF6D101209342F3D1AC42F1D11D
S11320408E4203D0002BEDD1002CEBD10020E9E728
S11320504A024302F0B55C0A550A43004A001B0ECB
S1132060C60F120EC90FFF2B26D0FF2A29D0002B32
S11320700CD1604260418446002A0AD0002816D15F
S11320808E4221D0002E14D1012014E0002AF7D171
S113209094466F426F416046002805D1002FEFD06F
S11320A00120002E07D004E00020002F03D10029D6
S11320B0EAD101204042F0BD002CD6D0022040429B
S11320C0F9E7002DD3D0F9E79342DBDC04DBAC4223
S11320D0D8D80020AC42EED2002EEAD00120EAE7A4
S11320E04A024302F0B55C0A550A43004A001B0E3B
S11320F0C60F120EC90FFF2B26D0FF2A28D0002BA3
S11321000FD0002A14D194466F426F4160460028D4
S113211014D00020002F03D100290DD1012040420A
S1132120F0BD604260418446002AEDD00028F3D11E
S11321308E4211D0002EF1D10120F1E7002FF7D00B
S11321400120002EECD0E9E70220002CE8D1D4E7EE
S11321500220002DE4D1D2E79342EBDC04DBAC4255
S1132160E8D80020AC42DBD2002ED7D00120D7E73C
S113217070B50D4E0D4D0024AD1BAD1005D0A30060
S1132180F35801349847A542F9D100F011FF084EE5
S1132190084D0024AD1BAD1005D0A300F358013445
S11321A09847A542F9D170BDBC2F0000BC2F000098
S11321B0BC2F0000C02F0000F0B54F464646C0B407
S11321C083B0830752D0541E002A4AD0CEB2031CD7
S11321D0032503E0621E002C43D0141C01335A1E55
S11321E016702B42F6D1032C33D9FF250D402A0259
S11321F015432A0415430F2C1AD9271C103F3F09F5
S1132200B9463F01B8461027FF18BC4646461A1C7B
S11322106644156055609560D5601032B242F8D1BD
S11322204F4601373F010F22DB191440032C10D90C
S1132230271F1E1DBF080196BE00B446019E1A1C2E
S1132240664420C2B242FCD10137BF000322DB192D
S11322501440002C05D0C9B21C1919700133A342D3
S1132260FBD103B00CBC90469946F0BD031C141C72
S1132270B9E7C0460CB410B59CB0029106910C4964
S11322801EAB049107918224012104CBA40002AA6D
S113229049429481D181111C1E9A019300F030F9B6
S11322A0029A002313701CB010BC08BC02B018477B
S11322B0FFFFFF7F0EB400B59CB01DAB04CB8222A0
S11322C002A992008A810A4A02908A604A61012224
S11322D05242CA81074A086110681D9A019300F0AE
S11322E00FF9029A002313701CB008BC03B01847FE
S11322F0FFFFFF7F0C000020F0B5454657464E46D1
S1132300E0B48D6880460C1C171C1E1C9D4216D818
S113231090228B89D200134213D120682E1C321CC8
S1132320391C00F05DFCA2682368551B9E19A5604A
S1132330266000201CBC90469946A246F0BD1D1C98
S1132340EBE7096920686269401A824650008218E6
S1132350D00F82185210914652460132921991457B
S11323601CD34A4658051CD54046111C00F0D2FC2B
S1132370051E29D05246216900F0F0FBA289144BB6
S1132380134080221343A38153464946E818CB1ACD
S1132390256120606161351CA360C0E79146580542
S11323A0E2D4404600F012FD051EEDD140462169FD
S11323B000F068FC0C2342461360A28940231343B7
S11323C00120A3814042B5E70C2341460B60F4E7AA
S11323D07FFBFFFFF0B556464D4644465F46F0B4DA
S11323E0936883B001900D1C90461668002B00D1B1
S11323F07CE00868002400218946AB68002C45D0A5
S11324001F1C9C424BD39022AB89D200134249D06B
S113241029696A69401A834650008218D00F8218CD
S113242052109246621C5A44924554D292468020DD
S1132430C000034238D00198111C00F06BFC071E49
S113244057D05A46296900F089FBAA892B4B1340BF
S113245080221343AB8151465B46F818CB1A2F6197
S113246028606961271CAB60A2464946524600F0C9
S1132470B7FB2A684146AB688968101CDB1B5044D3
S11324800C1B4246AB602860946026D031687468A7
S113249089460836002CF9D01F1C9C42B3D2271C55
S11324A0A246E2E7BA46E0E7019800F08FFC071E77
S11324B0D1D10198296900F0E5FB019A0C2313603E
S11324C0AA8940231343AB814046002383604360C1
S11324D00120404203E05246A9E75460002003B0C3
S11324E03CBC90469946A246AB46F0BD53600020E2
S11324F0F5E701990C230B60E2E7C0467FFBFFFF81
S1132500F0B55F4656464D464446F0B49FB0059339
S11325108B8904900391171C190604D5039A126938
S1132520002A00D1EEE006AD00236B6120236B7618
S11325303023AB768149824B824E99468B463B7859
S11325403C1C002B0DD0252B02D10AE0252B70D08A
S113255001342378002BF9D1E21B9046414600292F
S11325606CD12378002B78D00122524200236A6078
S1132570432201342B60EB60AB60AB54AB650127A5
S113258007E0801B3B1C29688340181C0843286013
S113259001342178301C052200F09EFA0028F0D185
S11325A02B68221CD90602D5202043216854190720
S11325B002D52B204321685421782A2900D16FE0C9
S11325C00B1C303B092B0BD8EA68910001348A18A4
S11325D0217852009A180B1C303B092BF5D9EA607C
S11325E02E2946D04846032200F076FA002808D067
S11325F04A46801A40238340181C2B680134184330
S11326002860217858460622671C297600F064FA6F
S1132610002860D04C4B002B00D085E0059B07229E
S113262007339343083305936A69131C53446B615E
S113263085E7E31B98464146002992D00498039904
S11326403A1C4346FFF758FE013006D06A69131C52
S113265043446B612378002B86D103998B895A06F6
S113266049D468691FB03CBC90469946A246AB4623
S1132670F0BD61782A291DD000236B600B1C303B10
S11326800134092BAED80022910001348A18217834
S113269052009A180B1C303B092BF5D96A60A1E74C
S11326A00599081D0968059000290EDBE9600134CD
S11326B0517895E7059BA01C1A1D1B6805926B6059
S11326C0002B1BDBA178041C8CE74942E960022142
S11326D00B432B60EBE705AB00930498291C039A8A
S11326E01A4B00F0BDF88246514601319CD1039942
S11326F08B895A06B5D501204042B3E701235B42DA
S11327006B60DFE7402100F005FB039B1860186154
S1132710002803D0039A4023536104E704990C234F
S113272001200B6040429DE705AB00930498291CEF
S1132730039A064B00E000BF8246D5E7202F000035
S11327401C2F0000142F000000000000F9220000DC
S1132750F0B54E4657464546E0B49146061C1F1C4C
S113276008980A698B680C1C8046934200DA131C93
S113277049460B604322A25C002A01D001330B605E
S11327802268930604D5484603680233036022682E
S11327900623134220D14846E16800680B1A002B37
S11327A01ADD192109198A46002506E04846E2681F
S11327B000680135131AAB420DDD301C391C52463A
S11327C00123C0470130F1D1012040421CBC904696
S11327D09946A246F0BD22684323E35C591E8B410F
S11327E0910626D4221C301C391C4332C0470130C8
S11327F0EAD04B4620681A68062303400020E168AB
S11328008146042B26D0A26823699A421DDC1A341F
S11328104946A2460024002903DC19E001344C4552
S113282016D0301C391C52460123C0470130F5D163
S1132830CAE7E11840313020C8705A1C4521615C58
S1132840A21840320233D170CCE7D31A9944DEE7A0
S11328500020BBE78A1AD343DB171A409146D2E71C
S1132860F0B5444656464D465F46F0B40C1C9A46B5
S1132870237E87B0433191468046109A03916E2B94
S113288054D015D8632B00D1D0E000D9BAE0002B86
S113289059D0582B00D0EDE0452163548C4923686E
S11328A08B4619061AD51168081D10600D681BE0C7
S11328B0732B00D1CFE000D97FE06F2B00D1E0E093
S11328C0702B00D0D6E0216820230B4323604521E0
S11328D0782060547F498B461906E4D45906E2D522
S11328E01168081D0D881060DA0702D520221343F1
S11328F023601027002D03D12168202399432160F0
S113290000224323E2546368A360002B5BDB21684D
S1132910042291432160002D58D1039E002B54D1F1
S1132920082F64D003998B1B23610FE023681906D9
S113293000D589E0590600D486E01368191D11609A
S11329401B6862691A800023039E23615346009327
S11329504046211C05AA4B46FFF7FAFE01301FD062
S113296040464946321C2369D047013018D02168BB
S1132970E068059B89071CD5C21A002A19DD261CAC
S11329801936002505E0E068059B0135C21AAA4204
S11329900FDD40464946321C0123D0470130F2D1B5
S11329A00120404207B03CBC90469946A246AB4643
S11329B0F0BD9842F6DA181CF4E7752B61D0782B39
S11329C058D1236883E7002D00D10025039E281CDD
S11329D0391CFEF71DFC5A46535C013E281C33701B
S11329E0391CFEF7D1FB051EF1D1082F9AD12368BB
S11329F0DB0797D561682269914293DC013E30235D
S1132A0033708FE7642B01D0692B33D12368190607
S1132A1001D459064CD41368191D1B6811601D1C80
S1132A20002B4CDB2A4B0A279B466CE71368261CB9
S1132A30191D11601A684223E254012342362361AE
S1132A4000224323E25481E71368191D11601B68B7
S1132A5062691A6077E71368191D11601E68301CDB
S1132A6000F0F0F963682061984201D92361181CD1
S1132A706060E5E74222A354261C01234236236109
S1132A80DEE72368190601D459060CD41368191D0E
S1132A901D6811600E4A237E934608276F2B00D1D0
S1132AA02EE70A272CE71368191D11601D88F1E72A
S1132AB01368191D116000229D5E2B1CB0E743238F
S1132AC02D22E254024B6D429B460A271BE7C04667
S1132AD0282F00003C2F0000F0B5CCB2830737D07C
S1132AE0531E002A1FD00278A2421DD0032505E000
S1132AF0002B18D00278013BA24215D001302842A5
S1132B00F6D1032B11D8002B0DD00278A2420BD0A2
S1132B10421CC31804E00132511E0978A14203D0BB
S1132B20101E9842F7D10020F0BDFF2631400E025E
S1132B3031430E04074D0E430268074F7240D1190A
S1132B4091432942DFD1043B0430032BF4D8DAE764
S1132B50131CD6E780808080FFFEFEFEF0B50F2AAE
S1132B6035D9031C0B439C0735D1161C103E36097E
S1132B703501451910350C1C031C27681F60676854
S1132B805F60A7689F60E7681034DF601033AB4272
S1132B90F3D1731C1B01C518C9180F231340032B51
S1132BA01BD91C1FA4080134A4000023CE58EE50E6
S1132BB00433A342FAD1ED18C91803231A4005D0EF
S1132BC00023CC5CEC5401339342FAD1F0BD051CD4
S1132BD0002AF5D1FAE7051CF2E71A1CF8E7C0460B
S1132BE0F0B588420ED98D18A8420BD28618531E10
S1132BF05142002A05D06A18D45C7218D454013B9F
S1132C00F9D2F0BD0F2A09D8051C002AF9D00023F7
S1132C10CC5CEC5401339342FAD1F2E7031C0B432E
S1132C209C072AD1161C103E36093501451910356A
S1132C300C1C031C27681F6067685F60A7689F609F
S1132C40E7681034DF601033AB42F3D1731C1B010F
S1132C50C518C9180F231340032B10D91C1FA4082F
S1132C600134A4000023CE58EE500433A342FAD119
S1132C70ED18C91803231A40C7E7051CC7E71A1C37
S1132C80C3E7C04630B500290FD004390B68002BC8
S1132C901EDB1F4B1A68002A05D08A4209D908682E
S1132CA00C18A24216D04A60196030BD8B4203D87A
S1132CB01A1C5368002BF9D1156854198C4213D08F
S1132CC00FD808680C189C421AD04B605160ECE78E
S1132CD0C918DEE714685268001908604A60196070
S1132CE0E3E70C230360E0E709686D1851191560E8
S1132CF09942DAD119685B686D1815605360D4E79E
S1132D001C685B68001908604B605160CDE7C046E1
S1132D10C0000020F8B5CD1C03239D430835071CD3
S1132D200C2D27D20C25A94226D8274E3368002B18
S1132D300AD019684A1B04D440E021684A1B1FD5F5
S1132D40231C5C68002CF8D17168002930D0381C31
S1132D50291C00F065F8431C0ED0C41C03239C43BB
S1132D60A04205D0211A381C00F05AF8013003D0D3
S1132D7025600AE0002DD6DA0C233B6000200DE02C
S1132D800B2A0CD92260A4182560201C0B300722C2
S1132D90231D9043C31A01D05A42E250F8BD9C420D
S1132DA002D062685A60F0E71A1C32601C1CECE71F
S1132DB0381C002100F034F87060C8E70B2A01D8F1
S1132DC05A68F2E71C1CDDE7C0000020F8B5061CB9
S1132DD00C1C151C00291DD0002A17D000F03AF84D
S1132DE0854201D8201CF8BD301C291CFFF792FF36
S1132DF0071E09D0211C2A1CFFF7B0FE211C301C21
S1132E00FFF740FF3C1CEDE70024EBE7FFF73AFF38
S1132E100024E7E7111CFFF77DFF041CE2E7C0462E
S1132E2038B5074C0023051C081C2360FEF73CF949
S1132E30431C00D038BD2368002BFBD02B60F9E77E
S1132E40780400200023C25C0133002AFBD1581E01
S1132E507047C04604390B68181F002B00DB70470D
S1132E60C8581B18181FFAE725302E3564000000D7
S1132E704C0C0000A00C0000A00C00002C0C000066
S1132E803E0C00005C0C0000300C00006C0C0000D8
S1132E90A21300005613000082130000DE1200008B
S1132EA0821300007A13000082130000DE12000077
S1132EB056130000561300007A130000DE120000BF
S1132EC0D6120000D6120000D612000088130000AB
S1132ED0581A0000461C0000461C0000361A000068
S1132EE01E1900001E190000261A0000361A0000E0
S1132EF01E190000261A00001E190000361A0000D0
S1132F001C1900001C1900001C1900004E1C0000B4
S1132F1043000000232D302B20000000686C4C007F
S1132F2065666745464700003031323334353637FD
S1132F3038394142434445460000000030313233C1
S1132F4034353637383961626364656600000000E1
S1132F50000000000000000000000000000000006D
S1132F60000000000000000000000000000000005D
S1132F70000000000000000000000000000000004D
S1132F80000000000000000000000000000000003D
S1132F90000000000000000000000000000000002D
S1132FA0000000000000000000000000000000001D
S1132FB0F8B5C046F8BC08BC9E4670472501000021
S1132FC0F8B5C046F8BC08BC9E467047F90000003E
S1132FD09D050000EC060000010000001000002028
S1132FE000000000902F0000702F0000502F000000
S1132FF000000000000000000000000000000000CD
S1133000102F00000000000000000000000000007D
S113301000000000000000000000000000000000AC
S1133020000000000000000000000000000000009C
S1133030000000000000000000000000000000008C
S9031009E3
